{
  "_format": "hh-sol-artifact-1",
  "contractName": "VoteMachine",
  "sourceName": "contracts/VoteMachine.sol",
  "abi": [
    {
      "inputs": [],
      "stateMutability": "nonpayable",
      "type": "constructor"
    },
    {
      "inputs": [],
      "name": "admin",
      "outputs": [
        {
          "internalType": "address",
          "name": "",
          "type": "address"
        }
      ],
      "stateMutability": "view",
      "type": "function"
    },
    {
      "inputs": [
        {
          "internalType": "string",
          "name": "",
          "type": "string"
        }
      ],
      "name": "arrayTracker",
      "outputs": [
        {
          "internalType": "uint256",
          "name": "",
          "type": "uint256"
        }
      ],
      "stateMutability": "view",
      "type": "function"
    },
    {
      "inputs": [],
      "name": "beginVoteStage",
      "outputs": [],
      "stateMutability": "nonpayable",
      "type": "function"
    },
    {
      "inputs": [],
      "name": "candidateCounter",
      "outputs": [
        {
          "internalType": "uint256",
          "name": "",
          "type": "uint256"
        }
      ],
      "stateMutability": "view",
      "type": "function"
    },
    {
      "inputs": [
        {
          "internalType": "string",
          "name": "",
          "type": "string"
        }
      ],
      "name": "candidateRegistered",
      "outputs": [
        {
          "internalType": "bool",
          "name": "",
          "type": "bool"
        }
      ],
      "stateMutability": "view",
      "type": "function"
    },
    {
      "inputs": [
        {
          "internalType": "uint256",
          "name": "",
          "type": "uint256"
        }
      ],
      "name": "candidates",
      "outputs": [
        {
          "internalType": "string",
          "name": "name",
          "type": "string"
        },
        {
          "internalType": "uint256",
          "name": "votes",
          "type": "uint256"
        }
      ],
      "stateMutability": "view",
      "type": "function"
    },
    {
      "inputs": [],
      "name": "expirationTime",
      "outputs": [
        {
          "internalType": "uint256",
          "name": "",
          "type": "uint256"
        }
      ],
      "stateMutability": "view",
      "type": "function"
    },
    {
      "inputs": [],
      "name": "getListOfCandidates",
      "outputs": [
        {
          "internalType": "string[]",
          "name": "",
          "type": "string[]"
        }
      ],
      "stateMutability": "view",
      "type": "function"
    },
    {
      "inputs": [],
      "name": "getResults",
      "outputs": [
        {
          "components": [
            {
              "internalType": "string",
              "name": "name",
              "type": "string"
            },
            {
              "internalType": "uint256",
              "name": "votes",
              "type": "uint256"
            }
          ],
          "internalType": "struct VoteMachine.Candidate[]",
          "name": "",
          "type": "tuple[]"
        }
      ],
      "stateMutability": "view",
      "type": "function"
    },
    {
      "inputs": [
        {
          "internalType": "uint256",
          "name": "",
          "type": "uint256"
        }
      ],
      "name": "listOfCandidates",
      "outputs": [
        {
          "internalType": "string",
          "name": "",
          "type": "string"
        }
      ],
      "stateMutability": "view",
      "type": "function"
    },
    {
      "inputs": [],
      "name": "pollNumber",
      "outputs": [
        {
          "internalType": "uint256",
          "name": "",
          "type": "uint256"
        }
      ],
      "stateMutability": "view",
      "type": "function"
    },
    {
      "inputs": [
        {
          "internalType": "string",
          "name": "_name",
          "type": "string"
        }
      ],
      "name": "registerCandidate",
      "outputs": [],
      "stateMutability": "nonpayable",
      "type": "function"
    },
    {
      "inputs": [],
      "name": "reset",
      "outputs": [],
      "stateMutability": "nonpayable",
      "type": "function"
    },
    {
      "inputs": [],
      "name": "stage",
      "outputs": [
        {
          "internalType": "uint256",
          "name": "",
          "type": "uint256"
        }
      ],
      "stateMutability": "view",
      "type": "function"
    },
    {
      "inputs": [],
      "name": "startTime",
      "outputs": [
        {
          "internalType": "uint256",
          "name": "",
          "type": "uint256"
        }
      ],
      "stateMutability": "view",
      "type": "function"
    },
    {
      "inputs": [
        {
          "internalType": "string",
          "name": "_name",
          "type": "string"
        }
      ],
      "name": "voteForCandidate",
      "outputs": [],
      "stateMutability": "nonpayable",
      "type": "function"
    },
    {
      "inputs": [
        {
          "internalType": "address",
          "name": "",
          "type": "address"
        }
      ],
      "name": "voteOnce",
      "outputs": [
        {
          "internalType": "bool",
          "name": "",
          "type": "bool"
        }
      ],
      "stateMutability": "view",
      "type": "function"
    },
    {
      "inputs": [
        {
          "internalType": "uint256",
          "name": "",
          "type": "uint256"
        }
      ],
      "name": "voters",
      "outputs": [
        {
          "internalType": "address",
          "name": "",
          "type": "address"
        }
      ],
      "stateMutability": "view",
      "type": "function"
    }
  ],
  "bytecode": "0x608060405234801561001057600080fd5b50336000806101000a81548173ffffffffffffffffffffffffffffffffffffffff021916908373ffffffffffffffffffffffffffffffffffffffff160217905550600060018190555060006005819055506001600281905550611e72806100786000396000f3fe608060405234801561001057600080fd5b50600436106101165760003560e01c806392d7df4a116100a2578063d826f88f11610071578063d826f88f146102e6578063da284dcc146102f0578063da58c7d91461030e578063e89927ef1461033e578063f851a4401461035a57610116565b806392d7df4a1461024c5780639eb88db61461027c578063aa25a1e914610298578063c040e6b8146102c857610116565b80634717f97c116100e95780634717f97c146101925780635ea6cc22146101b057806362868d74146101e057806362a350c2146101fe57806378e979251461022e57610116565b80631acbbdbc1461011b5780632f3868ca146101255780633477ee2e146101435780633bc990db14610174575b600080fd5b610123610378565b005b61012d61042d565b60405161013a9190611185565b60405180910390f35b61015d600480360381019061015891906111f1565b610506565b60405161016b929190611277565b60405180910390f35b61017c6105c2565b60405161018991906112a7565b60405180910390f35b61019a6105c8565b6040516101a791906113d0565b60405180910390f35b6101ca60048036038101906101c59190611527565b6106c3565b6040516101d791906112a7565b60405180910390f35b6101e86106f1565b6040516101f591906112a7565b60405180910390f35b61021860048036038101906102139190611527565b6106f7565b604051610225919061158b565b60405180910390f35b61023661072d565b60405161024391906112a7565b60405180910390f35b610266600480360381019061026191906111f1565b610733565b60405161027391906115a6565b60405180910390f35b61029660048036038101906102919190611527565b6107df565b005b6102b260048036038101906102ad9190611626565b610977565b6040516102bf919061158b565b60405180910390f35b6102d0610997565b6040516102dd91906112a7565b60405180910390f35b6102ee61099d565b005b6102f8610cbd565b60405161030591906112a7565b60405180910390f35b610328600480360381019061032391906111f1565b610cc3565b6040516103359190611662565b60405180910390f35b61035860048036038101906103539190611527565b610d02565b005b610362610f77565b60405161036f9190611662565b60405180910390f35b60008054906101000a900473ffffffffffffffffffffffffffffffffffffffff1673ffffffffffffffffffffffffffffffffffffffff163373ffffffffffffffffffffffffffffffffffffffff1614610406576040517f08c379a00000000000000000000000000000000000000000000000000000000081526004016103fd906116ef565b60405180910390fd5b600180819055504260038190555062015180600354610425919061173e565b600481905550565b60606006805480602002602001604051908101604052809291908181526020016000905b828210156104fd578382906000526020600020018054610470906117a1565b80601f016020809104026020016040519081016040528092919081815260200182805461049c906117a1565b80156104e95780601f106104be576101008083540402835291602001916104e9565b820191906000526020600020905b8154815290600101906020018083116104cc57829003601f168201915b505050505081526020019060010190610451565b50505050905090565b6007818154811061051657600080fd5b9060005260206000209060020201600091509050806000018054610539906117a1565b80601f0160208091040260200160405190810160405280929190818152602001828054610565906117a1565b80156105b25780601f10610587576101008083540402835291602001916105b2565b820191906000526020600020905b81548152906001019060200180831161059557829003601f168201915b5050505050908060010154905082565b60055481565b60606007805480602002602001604051908101604052809291908181526020016000905b828210156106ba578382906000526020600020906002020160405180604001604052908160008201805461061f906117a1565b80601f016020809104026020016040519081016040528092919081815260200182805461064b906117a1565b80156106985780601f1061066d57610100808354040283529160200191610698565b820191906000526020600020905b81548152906001019060200180831161067b57829003601f168201915b50505050508152602001600182015481525050815260200190600101906105ec565b50505050905090565b600a818051602081018201805184825260208301602085012081835280955050505050506000915090505481565b60025481565b6009818051602081018201805184825260208301602085012081835280955050505050506000915054906101000a900460ff1681565b60035481565b6006818154811061074357600080fd5b90600052602060002001600091509050805461075e906117a1565b80601f016020809104026020016040519081016040528092919081815260200182805461078a906117a1565b80156107d75780601f106107ac576101008083540402835291602001916107d7565b820191906000526020600020905b8154815290600101906020018083116107ba57829003601f168201915b505050505081565b6000600154146107ee57600080fd5b60001515600982604051610802919061180e565b908152602001604051809103902060009054906101000a900460ff16151514610860576040517f08c379a000000000000000000000000000000000000000000000000000000000815260040161085790611871565b60405180910390fd5b6001600982604051610872919061180e565b908152602001604051809103902060006101000a81548160ff02191690831515021790555061089f610f9b565b81816000018190525060008160200181815250506006829080600181540180825580915050600190039060005260206000200160009091909190915090816108e79190611a3d565b50600781908060018154018082558091505060019003906000526020600020906002020160009091909190915060008201518160000190816109299190611a3d565b50602082015181600101555050600554600a83604051610949919061180e565b9081526020016040518091039020819055506005600081548092919061096e90611b0f565b91905055505050565b600b6020528060005260406000206000915054906101000a900460ff1681565b60015481565b60008054906101000a900473ffffffffffffffffffffffffffffffffffffffff1673ffffffffffffffffffffffffffffffffffffffff163373ffffffffffffffffffffffffffffffffffffffff1614610a2b576040517f08c379a0000000000000000000000000000000000000000000000000000000008152600401610a22906116ef565b60405180910390fd5b4260045410610a6f576040517f08c379a0000000000000000000000000000000000000000000000000000000008152600401610a6690611ba3565b60405180910390fd5b6001805414610ab3576040517f08c379a0000000000000000000000000000000000000000000000000000000008152600401610aaa90611c0f565b60405180910390fd5b600060018190555060005b600780549050811015610bda576000600960068381548110610ae357610ae2611c2f565b5b90600052602060002001604051610afa9190611ce1565b908152602001604051809103902060006101000a81548160ff0219169083151502179055506000600a60068381548110610b3757610b36611c2f565b5b90600052602060002001604051610b4e9190611ce1565b90815260200160405180910390208190555060078181548110610b7457610b73611c2f565b5b906000526020600020906002020160008082016000610b939190610fb5565b6001820160009055505060068181548110610bb157610bb0611c2f565b5b906000526020600020016000610bc79190610fb5565b8080610bd290611b0f565b915050610abe565b5060005b600880549050811015610c94576000600b600060088481548110610c0557610c04611c2f565b5b9060005260206000200160009054906101000a900473ffffffffffffffffffffffffffffffffffffffff1673ffffffffffffffffffffffffffffffffffffffff1673ffffffffffffffffffffffffffffffffffffffff16815260200190815260200160002060006101000a81548160ff0219169083151502179055508080610c8c90611b0f565b915050610bde565b5060086000610ca39190610ff5565b600060058190555060006003819055506000600481905550565b60045481565b60088181548110610cd357600080fd5b906000526020600020016000915054906101000a900473ffffffffffffffffffffffffffffffffffffffff1681565b6001805414610d1057600080fd5b60011515600982604051610d24919061180e565b908152602001604051809103902060009054906101000a900460ff16151514610d82576040517f08c379a0000000000000000000000000000000000000000000000000000000008152600401610d7990611d44565b60405180910390fd5b60001515600b60003373ffffffffffffffffffffffffffffffffffffffff1673ffffffffffffffffffffffffffffffffffffffff16815260200190815260200160002060009054906101000a900460ff16151514610e15576040517f08c379a0000000000000000000000000000000000000000000000000000000008152600401610e0c90611db0565b60405180910390fd5b426004541015610e5a576040517f08c379a0000000000000000000000000000000000000000000000000000000008152600401610e5190611e1c565b60405180910390fd5b6001600b60003373ffffffffffffffffffffffffffffffffffffffff1673ffffffffffffffffffffffffffffffffffffffff16815260200190815260200160002060006101000a81548160ff0219169083151502179055506008339080600181540180825580915050600190039060005260206000200160009091909190916101000a81548173ffffffffffffffffffffffffffffffffffffffff021916908373ffffffffffffffffffffffffffffffffffffffff16021790555060006007600a83604051610f29919061180e565b90815260200160405180910390205481548110610f4957610f48611c2f565b5b90600052602060002090600202019050806001016000815480929190610f6e90611b0f565b91905055505050565b60008054906101000a900473ffffffffffffffffffffffffffffffffffffffff1681565b604051806040016040528060608152602001600081525090565b508054610fc1906117a1565b6000825580601f10610fd35750610ff2565b601f016020900490600052602060002090810190610ff19190611016565b5b50565b50805460008255906000526020600020908101906110139190611016565b50565b5b8082111561102f576000816000905550600101611017565b5090565b600081519050919050565b600082825260208201905092915050565b6000819050602082019050919050565b600081519050919050565b600082825260208201905092915050565b60005b8381101561109957808201518184015260208101905061107e565b60008484015250505050565b6000601f19601f8301169050919050565b60006110c18261105f565b6110cb818561106a565b93506110db81856020860161107b565b6110e4816110a5565b840191505092915050565b60006110fb83836110b6565b905092915050565b6000602082019050919050565b600061111b82611033565b611125818561103e565b9350836020820285016111378561104f565b8060005b85811015611173578484038952815161115485826110ef565b945061115f83611103565b925060208a0199505060018101905061113b565b50829750879550505050505092915050565b6000602082019050818103600083015261119f8184611110565b905092915050565b6000604051905090565b600080fd5b600080fd5b6000819050919050565b6111ce816111bb565b81146111d957600080fd5b50565b6000813590506111eb816111c5565b92915050565b600060208284031215611207576112066111b1565b5b6000611215848285016111dc565b91505092915050565b600082825260208201905092915050565b600061123a8261105f565b611244818561121e565b935061125481856020860161107b565b61125d816110a5565b840191505092915050565b611271816111bb565b82525050565b60006040820190508181036000830152611291818561122f565b90506112a06020830184611268565b9392505050565b60006020820190506112bc6000830184611268565b92915050565b600081519050919050565b600082825260208201905092915050565b6000819050602082019050919050565b6112f7816111bb565b82525050565b6000604083016000830151848203600086015261131a82826110b6565b915050602083015161132f60208601826112ee565b508091505092915050565b600061134683836112fd565b905092915050565b6000602082019050919050565b6000611366826112c2565b61137081856112cd565b935083602082028501611382856112de565b8060005b858110156113be578484038952815161139f858261133a565b94506113aa8361134e565b925060208a01995050600181019050611386565b50829750879550505050505092915050565b600060208201905081810360008301526113ea818461135b565b905092915050565b600080fd5b600080fd5b7f4e487b7100000000000000000000000000000000000000000000000000000000600052604160045260246000fd5b611434826110a5565b810181811067ffffffffffffffff82111715611453576114526113fc565b5b80604052505050565b60006114666111a7565b9050611472828261142b565b919050565b600067ffffffffffffffff821115611492576114916113fc565b5b61149b826110a5565b9050602081019050919050565b82818337600083830152505050565b60006114ca6114c584611477565b61145c565b9050828152602081018484840111156114e6576114e56113f7565b5b6114f18482856114a8565b509392505050565b600082601f83011261150e5761150d6113f2565b5b813561151e8482602086016114b7565b91505092915050565b60006020828403121561153d5761153c6111b1565b5b600082013567ffffffffffffffff81111561155b5761155a6111b6565b5b611567848285016114f9565b91505092915050565b60008115159050919050565b61158581611570565b82525050565b60006020820190506115a0600083018461157c565b92915050565b600060208201905081810360008301526115c0818461122f565b905092915050565b600073ffffffffffffffffffffffffffffffffffffffff82169050919050565b60006115f3826115c8565b9050919050565b611603816115e8565b811461160e57600080fd5b50565b600081359050611620816115fa565b92915050565b60006020828403121561163c5761163b6111b1565b5b600061164a84828501611611565b91505092915050565b61165c816115e8565b82525050565b60006020820190506116776000830184611653565b92915050565b7f4f6e6c79207468652041646d696e2063616e2063616c6c20746869732066756e60008201527f6374696f6e000000000000000000000000000000000000000000000000000000602082015250565b60006116d960258361121e565b91506116e48261167d565b604082019050919050565b60006020820190508181036000830152611708816116cc565b9050919050565b7f4e487b7100000000000000000000000000000000000000000000000000000000600052601160045260246000fd5b6000611749826111bb565b9150611754836111bb565b925082820190508082111561176c5761176b61170f565b5b92915050565b7f4e487b7100000000000000000000000000000000000000000000000000000000600052602260045260246000fd5b600060028204905060018216806117b957607f821691505b6020821081036117cc576117cb611772565b5b50919050565b600081905092915050565b60006117e88261105f565b6117f281856117d2565b935061180281856020860161107b565b80840191505092915050565b600061181a82846117dd565b915081905092915050565b7f43616e64696461746520697320616c7265616479207265676973746572656421600082015250565b600061185b60208361121e565b915061186682611825565b602082019050919050565b6000602082019050818103600083015261188a8161184e565b9050919050565b60008190508160005260206000209050919050565b60006020601f8301049050919050565b600082821b905092915050565b6000600883026118f37fffffffffffffffffffffffffffffffffffffffffffffffffffffffffffffffff826118b6565b6118fd86836118b6565b95508019841693508086168417925050509392505050565b6000819050919050565b600061193a611935611930846111bb565b611915565b6111bb565b9050919050565b6000819050919050565b6119548361191f565b61196861196082611941565b8484546118c3565b825550505050565b600090565b61197d611970565b61198881848461194b565b505050565b5b818110156119ac576119a1600082611975565b60018101905061198e565b5050565b601f8211156119f1576119c281611891565b6119cb846118a6565b810160208510156119da578190505b6119ee6119e6856118a6565b83018261198d565b50505b505050565b600082821c905092915050565b6000611a14600019846008026119f6565b1980831691505092915050565b6000611a2d8383611a03565b9150826002028217905092915050565b611a468261105f565b67ffffffffffffffff811115611a5f57611a5e6113fc565b5b611a6982546117a1565b611a748282856119b0565b600060209050601f831160018114611aa75760008415611a95578287015190505b611a9f8582611a21565b865550611b07565b601f198416611ab586611891565b60005b82811015611add57848901518255600182019150602085019450602081019050611ab8565b86831015611afa5784890151611af6601f891682611a03565b8355505b6001600288020188555050505b505050505050565b6000611b1a826111bb565b91507fffffffffffffffffffffffffffffffffffffffffffffffffffffffffffffffff8203611b4c57611b4b61170f565b5b600182019050919050565b7f5468697320706f6c6c20686173206e6f7420656e646564207965740000000000600082015250565b6000611b8d601b8361121e565b9150611b9882611b57565b602082019050919050565b60006020820190508181036000830152611bbc81611b80565b9050919050565b7f5468657265206973206e6f20656e64656420706f6c6c20746f20726573657400600082015250565b6000611bf9601f8361121e565b9150611c0482611bc3565b602082019050919050565b60006020820190508181036000830152611c2881611bec565b9050919050565b7f4e487b7100000000000000000000000000000000000000000000000000000000600052603260045260246000fd5b60008154611c6b816117a1565b611c7581866117d2565b94506001821660008114611c905760018114611ca557611cd8565b60ff1983168652811515820286019350611cd8565b611cae85611891565b60005b83811015611cd057815481890152600182019150602081019050611cb1565b838801955050505b50505092915050565b6000611ced8284611c5e565b915081905092915050565b7f43616e646964617465206e6f7420726567697374657265642100000000000000600082015250565b6000611d2e60198361121e565b9150611d3982611cf8565b602082019050919050565b60006020820190508181036000830152611d5d81611d21565b9050919050565b7f566f746572732063616e206f6e6c7920766f7465206f6e636500000000000000600082015250565b6000611d9a60198361121e565b9150611da582611d64565b602082019050919050565b60006020820190508181036000830152611dc981611d8d565b9050919050565b7f5468697320706f6c6c2068617320656e64656400000000000000000000000000600082015250565b6000611e0660138361121e565b9150611e1182611dd0565b602082019050919050565b60006020820190508181036000830152611e3581611df9565b905091905056fea2646970667358221220a16b4acb470817c9b22d34c74a2d8c1cd99a4b59131f89c9df0d2d16097b0c1c64736f6c63430008110033",
  "linkReferences": {},
  "deployedLinkReferences": {}
}